{
  "_format": "hh-sol-artifact-1",
  "contractName": "BuyMeACoffee",
  "sourceName": "contracts/BuyMeACoffee.sol",
  "abi": [
    {
      "inputs": [],
      "stateMutability": "nonpayable",
      "type": "constructor"
    },
    {
      "inputs": [
        {
          "internalType": "address",
          "name": "from",
          "type": "address"
        }
      ],
      "name": "CallFailed",
      "type": "error"
    },
    {
      "anonymous": false,
      "inputs": [
        {
          "indexed": true,
          "internalType": "address",
          "name": "from",
          "type": "address"
        },
        {
          "indexed": false,
          "internalType": "uint256",
          "name": "timestamp",
          "type": "uint256"
        },
        {
          "indexed": false,
          "internalType": "string",
          "name": "name",
          "type": "string"
        },
        {
          "indexed": false,
          "internalType": "string",
          "name": "message",
          "type": "string"
        }
      ],
      "name": "NewMemo",
      "type": "event"
    },
    {
      "inputs": [
        {
          "internalType": "string",
          "name": "_message",
          "type": "string"
        },
        {
          "internalType": "string",
          "name": "_name",
          "type": "string"
        }
      ],
      "name": "buyCoffee",
      "outputs": [],
      "stateMutability": "payable",
      "type": "function"
    },
    {
      "inputs": [],
      "name": "getMemos",
      "outputs": [
        {
          "components": [
            {
              "internalType": "address",
              "name": "from",
              "type": "address"
            },
            {
              "internalType": "uint256",
              "name": "timestamp",
              "type": "uint256"
            },
            {
              "internalType": "string",
              "name": "name",
              "type": "string"
            },
            {
              "internalType": "string",
              "name": "message",
              "type": "string"
            }
          ],
          "internalType": "struct BuyMeACoffee.Memo[]",
          "name": "",
          "type": "tuple[]"
        }
      ],
      "stateMutability": "view",
      "type": "function"
    },
    {
      "inputs": [],
      "name": "getOwner",
      "outputs": [
        {
          "internalType": "address",
          "name": "",
          "type": "address"
        }
      ],
      "stateMutability": "view",
      "type": "function"
    },
    {
      "inputs": [],
      "name": "withdrawTips",
      "outputs": [],
      "stateMutability": "nonpayable",
      "type": "function"
    }
  ],
  "bytecode": "0x608060405234801561001057600080fd5b50600080546001600160a01b031916331790556107be806100326000396000f3fe60806040526004361061003f5760003560e01c8063204206e1146100445780633aaa74b214610059578063865c51721461006e578063893d20e814610099575b600080fd5b6100576100523660046105ac565b6100bf565b005b34801561006557600080fd5b50610057610254565b34801561007a57600080fd5b506100836102cd565b604051610090919061065d565b60405180910390f35b3480156100a557600080fd5b506000546001600160a01b03166040516100909190610704565b600034116101115760405162461bcd60e51b815260206004820152601a60248201527963616e27742062757920636f6666656520666f7220667265652160301b60448201526064015b60405180910390fd5b6040805160808101825233815242602080830191825292820184815260608301869052600180548082018255600091909152835160049091027fb10e2d527612073b26eecdfd717e6a320cf44b4afac2b0732d9fcbe2b7fa0cf6810180546001600160a01b03939093166001600160a01b031990931692909217825592517fb10e2d527612073b26eecdfd717e6a320cf44b4afac2b0732d9fcbe2b7fa0cf784015590518051939491936101ec937fb10e2d527612073b26eecdfd717e6a320cf44b4afac2b0732d9fcbe2b7fa0cf801929190910190610470565b5060608201518051610208916003840191602090910190610470565b505050336001600160a01b03167fc56140e05f516509ae28110e0f72e17558a7561630dad2647c3ae87d986e365c42838560405161024893929190610718565b60405180910390a25050565b600080546040516001600160a01b039091169047908381818185875af1925050503d80600081146102a1576040519150601f19603f3d011682016040523d82523d6000602084013e6102a6565b606091505b50509050806102ca573360405163201be19160e01b81526004016101089190610704565b50565b60606001805480602002602001604051908101604052809291908181526020016000905b82821015610467576000848152602090819020604080516080810182526004860290920180546001600160a01b03168352600181015493830193909352600283018054929392918401916103449061074d565b80601f01602080910402602001604051908101604052809291908181526020018280546103709061074d565b80156103bd5780601f10610392576101008083540402835291602001916103bd565b820191906000526020600020905b8154815290600101906020018083116103a057829003601f168201915b505050505081526020016003820180546103d69061074d565b80601f01602080910402602001604051908101604052809291908181526020018280546104029061074d565b801561044f5780601f106104245761010080835404028352916020019161044f565b820191906000526020600020905b81548152906001019060200180831161043257829003601f168201915b505050505081525050815260200190600101906102f1565b50505050905090565b82805461047c9061074d565b90600052602060002090601f01602090048101928261049e57600085556104e4565b82601f106104b757805160ff19168380011785556104e4565b828001600101855582156104e4579182015b828111156104e45782518255916020019190600101906104c9565b506104f09291506104f4565b5090565b5b808211156104f057600081556001016104f5565b634e487b7160e01b600052604160045260246000fd5b600082601f83011261053057600080fd5b813567ffffffffffffffff8082111561054b5761054b610509565b604051601f8301601f19908116603f0116810190828211818310171561057357610573610509565b8160405283815286602085880101111561058c57600080fd5b836020870160208301376000602085830101528094505050505092915050565b600080604083850312156105bf57600080fd5b823567ffffffffffffffff808211156105d757600080fd5b6105e38683870161051f565b935060208501359150808211156105f957600080fd5b506106068582860161051f565b9150509250929050565b6000815180845260005b818110156106365760208185018101518683018201520161061a565b81811115610648576000602083870101525b50601f01601f19169290920160200192915050565b60006020808301818452808551808352604092508286019150828160051b87010184880160005b838110156106f657888303603f19018552815180516001600160a01b031684528781015188850152868101516080888601819052906106c582870182610610565b915050606080830151925085820381870152506106e28183610610565b968901969450505090860190600101610684565b509098975050505050505050565b6001600160a01b0391909116815260200190565b8381526060602082015260006107316060830185610610565b82810360408401526107438185610610565b9695505050505050565b600181811c9082168061076157607f821691505b6020821081141561078257634e487b7160e01b600052602260045260246000fd5b5091905056fea264697066735822122014228f445c53fb27ab0f9bac12879b0c5c128f85810d55aed273962a73f00a9d64736f6c63430008090033",
  "linkReferences": {},
  "deployedLinkReferences": {}
}