{
  "_format": "hh-sol-artifact-1",
  "contractName": "BuyMeACoffee",
  "sourceName": "contracts/BuyMeACoffee.sol",
  "abi": [
    {
      "inputs": [],
      "stateMutability": "nonpayable",
      "type": "constructor"
    },
    {
      "inputs": [
        {
          "internalType": "address",
          "name": "from",
          "type": "address"
        }
      ],
      "name": "CallFailed",
      "type": "error"
    },
    {
      "anonymous": false,
      "inputs": [
        {
          "indexed": true,
          "internalType": "address",
          "name": "from",
          "type": "address"
        },
        {
          "indexed": false,
          "internalType": "uint256",
          "name": "timestamp",
          "type": "uint256"
        },
        {
          "indexed": false,
          "internalType": "string",
          "name": "name",
          "type": "string"
        },
        {
          "indexed": false,
          "internalType": "string",
          "name": "message",
          "type": "string"
        }
      ],
      "name": "NewMemo",
      "type": "event"
    },
    {
      "anonymous": false,
      "inputs": [
        {
          "indexed": true,
          "internalType": "address",
          "name": "previousOwner",
          "type": "address"
        },
        {
          "indexed": true,
          "internalType": "address",
          "name": "newOwner",
          "type": "address"
        }
      ],
      "name": "OwnershipTransferred",
      "type": "event"
    },
    {
      "inputs": [
        {
          "internalType": "string",
          "name": "_message",
          "type": "string"
        },
        {
          "internalType": "string",
          "name": "_name",
          "type": "string"
        }
      ],
      "name": "buyCoffee",
      "outputs": [],
      "stateMutability": "payable",
      "type": "function"
    },
    {
      "inputs": [
        {
          "internalType": "address payable",
          "name": "_addr",
          "type": "address"
        }
      ],
      "name": "changeOwner",
      "outputs": [],
      "stateMutability": "nonpayable",
      "type": "function"
    },
    {
      "inputs": [],
      "name": "getMemos",
      "outputs": [
        {
          "components": [
            {
              "internalType": "address",
              "name": "from",
              "type": "address"
            },
            {
              "internalType": "uint256",
              "name": "timestamp",
              "type": "uint256"
            },
            {
              "internalType": "string",
              "name": "name",
              "type": "string"
            },
            {
              "internalType": "string",
              "name": "message",
              "type": "string"
            }
          ],
          "internalType": "struct BuyMeACoffee.Memo[]",
          "name": "",
          "type": "tuple[]"
        }
      ],
      "stateMutability": "view",
      "type": "function"
    },
    {
      "inputs": [],
      "name": "getOwner",
      "outputs": [
        {
          "internalType": "address",
          "name": "",
          "type": "address"
        }
      ],
      "stateMutability": "view",
      "type": "function"
    },
    {
      "inputs": [],
      "name": "owner",
      "outputs": [
        {
          "internalType": "address",
          "name": "",
          "type": "address"
        }
      ],
      "stateMutability": "view",
      "type": "function"
    },
    {
      "inputs": [],
      "name": "renounceOwnership",
      "outputs": [],
      "stateMutability": "nonpayable",
      "type": "function"
    },
    {
      "inputs": [
        {
          "internalType": "address",
          "name": "newOwner",
          "type": "address"
        }
      ],
      "name": "transferOwnership",
      "outputs": [],
      "stateMutability": "nonpayable",
      "type": "function"
    },
    {
      "inputs": [],
      "name": "withdrawTips",
      "outputs": [],
      "stateMutability": "nonpayable",
      "type": "function"
    }
  ],
  "bytecode": "0x608060405234801561001057600080fd5b5061001a33610031565b600180546001600160a01b03191633179055610081565b600080546001600160a01b038381166001600160a01b0319831681178455604051919092169283917f8be0079c531659141344cd1fd0a4f28419497f9722a3daafe3b4186f6b6457e09190a35050565b6109f6806100906000396000f3fe60806040526004361061006b5760003560e01c8063204206e1146100705780633aaa74b214610085578063715018a61461009a578063865c5172146100af578063893d20e8146100da5780638da5cb5b14610101578063a6f9dae11461011f578063f2fde38b1461013f575b600080fd5b61008361007e3660046107ab565b61015f565b005b34801561009157600080fd5b506100836102f5565b3480156100a657600080fd5b5061008361036e565b3480156100bb57600080fd5b506100c4610382565b6040516100d1919061085c565b60405180910390f35b3480156100e657600080fd5b506001546001600160a01b03165b6040516100d19190610903565b34801561010d57600080fd5b506000546001600160a01b03166100f4565b34801561012b57600080fd5b5061008361013a36600461092c565b610525565b34801561014b57600080fd5b5061008361015a36600461092c565b61054f565b600034116101b15760405162461bcd60e51b815260206004820152601a60248201527963616e27742062757920636f6666656520666f7220667265652160301b60448201526064015b60405180910390fd5b604080516080810182523381524260208083019182529282018481526060830186905260028054600181018255600091909152835160049091027f405787fa12a823e0f2b7631cc41b3ba8828b3321ca811111fa75cd3aa3bb5ace810180546001600160a01b03939093166001600160a01b031990931692909217825592517f405787fa12a823e0f2b7631cc41b3ba8828b3321ca811111fa75cd3aa3bb5acf840155905180519394919361028d937f405787fa12a823e0f2b7631cc41b3ba8828b3321ca811111fa75cd3aa3bb5ad00192919091019061066f565b50606082015180516102a991600384019160209091019061066f565b505050336001600160a01b03167fc56140e05f516509ae28110e0f72e17558a7561630dad2647c3ae87d986e365c4283856040516102e993929190610950565b60405180910390a25050565b6001546040516000916001600160a01b03169047908381818185875af1925050503d8060008114610342576040519150601f19603f3d011682016040523d82523d6000602084013e610347565b606091505b505090508061036b573360405163201be19160e01b81526004016101a89190610903565b50565b6103766105c5565b610380600061061f565b565b60606002805480602002602001604051908101604052809291908181526020016000905b8282101561051c576000848152602090819020604080516080810182526004860290920180546001600160a01b03168352600181015493830193909352600283018054929392918401916103f990610985565b80601f016020809104026020016040519081016040528092919081815260200182805461042590610985565b80156104725780601f1061044757610100808354040283529160200191610472565b820191906000526020600020905b81548152906001019060200180831161045557829003601f168201915b5050505050815260200160038201805461048b90610985565b80601f01602080910402602001604051908101604052809291908181526020018280546104b790610985565b80156105045780601f106104d957610100808354040283529160200191610504565b820191906000526020600020905b8154815290600101906020018083116104e757829003601f168201915b505050505081525050815260200190600101906103a6565b50505050905090565b61052d6105c5565b600180546001600160a01b0319166001600160a01b0392909216919091179055565b6105576105c5565b6001600160a01b0381166105bc5760405162461bcd60e51b815260206004820152602660248201527f4f776e61626c653a206e6577206f776e657220697320746865207a65726f206160448201526564647265737360d01b60648201526084016101a8565b61036b8161061f565b6000546001600160a01b031633146103805760405162461bcd60e51b815260206004820181905260248201527f4f776e61626c653a2063616c6c6572206973206e6f7420746865206f776e657260448201526064016101a8565b600080546001600160a01b038381166001600160a01b0319831681178455604051919092169283917f8be0079c531659141344cd1fd0a4f28419497f9722a3daafe3b4186f6b6457e09190a35050565b82805461067b90610985565b90600052602060002090601f01602090048101928261069d57600085556106e3565b82601f106106b657805160ff19168380011785556106e3565b828001600101855582156106e3579182015b828111156106e35782518255916020019190600101906106c8565b506106ef9291506106f3565b5090565b5b808211156106ef57600081556001016106f4565b634e487b7160e01b600052604160045260246000fd5b600082601f83011261072f57600080fd5b813567ffffffffffffffff8082111561074a5761074a610708565b604051601f8301601f19908116603f0116810190828211818310171561077257610772610708565b8160405283815286602085880101111561078b57600080fd5b836020870160208301376000602085830101528094505050505092915050565b600080604083850312156107be57600080fd5b823567ffffffffffffffff808211156107d657600080fd5b6107e28683870161071e565b935060208501359150808211156107f857600080fd5b506108058582860161071e565b9150509250929050565b6000815180845260005b8181101561083557602081850181015186830182015201610819565b81811115610847576000602083870101525b50601f01601f19169290920160200192915050565b60006020808301818452808551808352604092508286019150828160051b87010184880160005b838110156108f557888303603f19018552815180516001600160a01b031684528781015188850152868101516080888601819052906108c48287018261080f565b915050606080830151925085820381870152506108e1818361080f565b968901969450505090860190600101610883565b509098975050505050505050565b6001600160a01b0391909116815260200190565b6001600160a01b038116811461036b57600080fd5b60006020828403121561093e57600080fd5b813561094981610917565b9392505050565b838152606060208201526000610969606083018561080f565b828103604084015261097b818561080f565b9695505050505050565b600181811c9082168061099957607f821691505b602082108114156109ba57634e487b7160e01b600052602260045260246000fd5b5091905056fea2646970667358221220d2712e598d0b8ed3db9728ec68d0a1891833ecc8c1de3bae8a6863c2954b74b364736f6c63430008090033",
  "linkReferences": {},
  "deployedLinkReferences": {}
}